:100000000C945D000C9485000C9485000C94850084
:100010000C9485000C9485000C9485000C9485004C
:100020000C9485000C9485000C9485000C9485003C
:100030000C9485000C9485000C9485000C9485002C
:100040000C945E050C9485000C94CE050C94A805C8
:100050000C9485000C9485000C9485000C9485000C
:100060000C9485000C9485000000000024002700FB
:100070002A0000000000250028002B0004040404CE
:100080000404040402020202020203030303030342
:10009000010204081020408001020408102001021F
:1000A00004081020000000080002010000030407FB
:1000B0000000000000000000000611241FBECFEF6A
:1000C000D8E0DEBFCDBF22E0A4EAB1E001C01D92BE
:1000D000A636B207E1F711E0A0E0B1E0ECE1F9E10A
:1000E00002C005900D92A43AB107D9F710E0CDE512
:1000F000D0E004C02197FE010E94940ACC35D107BC
:10010000C9F70E944A060C948C0C0C94000090E0F5
:10011000FC01EC55FF4F2491FC01E057FF4F349157
:10012000FC01E458FF4FE491EE23C9F0222339F09B
:10013000233001F1A8F4213019F1223029F1F0E047
:10014000EE0FFF1FEE58FF4FA591B4918FB7F894B3
:10015000EC91611126C030953E233C938FBF0895EA
:100160002730A9F02830C9F0243049F78091800069
:100170008F7D03C0809180008F7780938000DFCFD8
:1001800084B58F7784BDDBCF84B58F7DFBCF809125
:10019000B0008F778093B000D2CF8091B0008F7D78
:1001A000F9CF3E2BDACFCF93DF9390E0FC01E057FD
:1001B000FF4F249184589F4FFC0184918823D1F0F4
:1001C00090E0880F991FFC01E859FF4FA591B49169
:1001D000FC01EE58FF4FC591D49161110EC09FB73D
:1001E000F8948C91E22FE0958E238C932881E22362
:1001F000E8839FBFDF91CF9108958FB7F894EC917A
:10020000E22BEC938FBFF6CF3FB7F8948091A90112
:100210009091AA01A091AB01B091AC0126B5A89B29
:1002200005C02F3F19F00196A11DB11D3FBFBA2F88
:10023000A92F982F8827BC01CD01620F711D811D48
:10024000911D42E0660F771F881F991F4A95D1F7CD
:1002500008958F929F92AF92BF92CF92DF92EF92CA
:10026000FF924B015C010E9404016B017C010E9422
:1002700004016C197D098E099F09683E7340810550
:100280009105A8F321E0821A9108A108B10888EE2F
:10029000C80E83E0D81EE11CF11C81149104A10456
:1002A000B10429F7FF90EF90DF90CF90BF90AF900F
:1002B0009F908F900895AF92BF92CF92DF92EF926E
:1002C000FF920F931F93CF93DF936C017B018B0100
:1002D000040F151FEB015E01AE18BF08C017D10750
:1002E00059F06991D601ED91FC910190F081E02DDA
:1002F000C6010995892B79F7C501DF91CF911F912F
:100300000F91FF90EF90DF90CF90BF90AF90089546
:10031000FC01538D448D252F30E0842F90E0821B0B
:10032000930B541710F0CF96089501970895FC0190
:10033000918D828D981761F0A28DAE0FBF2FB11DE8
:100340005D968C91928D9F5F9F73928F90E0089540
:100350008FEF9FEF0895FC01918D828D981731F0FA
:10036000828DE80FF11D858D90E008958FEF9FEF4E
:100370000895FC01918D228D892F90E0805C9F4F24
:10038000821B91098F73992708958DEA91E00E944D
:10039000B90121E0892B09F420E0822F089580E043
:1003A00090E0892B29F00E94C50181110C94000076
:1003B0000895FC01A48DA80FB92FB11DA35ABF4FFA
:1003C0002C91848D90E001968F739927848FA68954
:1003D000B7892C93A089B1898C91837080648C93A8
:1003E000938D848D981306C00288F389E02D808157
:1003F0008F7D80830895EF92FF920F931F93CF9389
:10040000DF93EC0181E0888F9B8D8C8D98131AC04F
:10041000E889F989808185FF15C09FB7F894EE8936
:10042000FF896083E889F989808183708064808393
:100430009FBF81E090E0DF91CF911F910F91FF90DE
:10044000EF900895F62E0B8D10E00F5F1F4F0F7386
:100450001127E02E8C8D8E110CC00FB607FCFACF41
:10046000E889F989808185FFF5CFCE010E94D90105
:10047000F1CFEB8DEC0FFD2FF11DE35AFF4FF08212
:100480009FB7F8940B8FEA89FB8980818062CFCF78
:10049000CF93DF93EC01888D8823B9F0AA89BB89BB
:1004A000E889F9898C9185FD03C0808186FD0DC0A6
:1004B0000FB607FCF7CF8C9185FFF2CF808185FFC7
:1004C000EDCFCE010E94D901E9CFDF91CF91089500
:1004D000089590E080E00895CF93DF93EC0160E011
:1004E0008E810E94870061E08E810E94870060E01B
:1004F0008E810E9487008BE891E00197F1F7DF91F0
:10050000CF910895CF92DF92EF92FF920F931F93B6
:10051000CF93DF936C017C0187E0E80EF11CD0E003
:10052000C0E0062F10E0B8010C2E02C0759567954B
:100530000A94E2F76170F70181917F010E948700C0
:100540002196C430D10579F7C601DF91CF911F9173
:100550000F91FF90EF90DF90CF900C946C02CF92B0
:10056000DF92EF92FF920F931F93CF93DF93EC01F3
:10057000F62E642F8C810E9487008D818F3F19F0A9
:1005800060E00E9487000F2D10E08F8584FF25C05A
:100590006E0187E0C80ED11CF12CE12CB8010E2CA5
:1005A00002C0759567950A94E2F76170F601819132
:1005B0006F010E948700FFEFEF1AFF0A88E0E8163C
:1005C000F10461F7CE01DF91CF911F910F91FF9060
:1005D000EF90DF90CF900C946C02B80184E0759599
:1005E00067958A95E1F7CE010E9482026F2DCE01B8
:1005F000DF91CF911F910F91FF90EF90DF90CF90FF
:100600000C94820240E0682F8AE492E00C94AF02DE
:1006100081E00E9402038BE39FE10197F1F70895C7
:10062000CF93DF93823029F4909159029860909390
:10063000590280935D0210925E0280E480935F0213
:1006400080E18093600280E58093610261E08091A7
:100650004E020E94D30080914F028F3F19F061E05B
:100660000E94D30061E0809150020E94D300CAE44E
:10067000D2E09E012A5432408091590284FD0BC081
:1006800084E090E021962817390744F461E08E81D8
:100690000E94D300EECF88E090E0F4CF8BE39DE0A2
:1006A0000197F1F760E080914E020E94870060E0C0
:1006B000809150020E94870080914F028F3F19F075
:1006C00060E00E9487008091590284FD34C063E09D
:1006D0008AE492E00E948202CBE4D6E4CE01019744
:1006E000F1F763E08AE492E00E9482022197F1F739
:1006F00063E08AE492E00E94820283E592E001973F
:10070000F1F762E08AE492E00E948202809159024D
:1007100080620E94020384E080935A028CE00E946F
:1007200002030E94080382E080935B0286E0DF916F
:10073000CF910C94020380620E9402038BE496E442
:100740000197F1F78091590280620E94020383E5CC
:1007500092E00197F1F78091590280620E940203B2
:10076000D5CF41E00E94AF0281E090E00895FB0107
:1007700001900020E9F73197AF01461B570BDC01D0
:10078000ED91FC910280F381E02D09948F929F926C
:10079000AF92BF92EF92FF920F931F93CF93DF938D
:1007A000CDB7DEB7A1970FB6F894DEBF0FBECDBFB1
:1007B0007C01FA01CB0119A2223008F42AE08E0153
:1007C0000F5D1F4F822E912CB12CA12CBF01A501D2
:1007D00094010E94720AF901CA016A300CF5605D49
:1007E000D8016E938D01232B242B252B79F790E0D4
:1007F00080E0109721F0BD01C7010E94B703A196C8
:100800000FB6F894DEBF0FBECDBFDF91CF911F9121
:100810000F91FF90EF90BF90AF909F908F900895B1
:10082000695CDECF2F923F924F925F926F927F92E0
:100830008F929F92AF92BF92CF92DF92EF92FF92F0
:100840001F93CF93DF93EC016A017B01722EAB0102
:100850009601CB01B6010E946D0A64E271E081113C
:1008600026C046015701E894B7F82FEF3FEF4FE756
:100870005FE7C501B4010E946D0A81110CC02FEF22
:100880003FEF4FE75FE7C501B4010E94FF0768E251
:1008900071E0181664F02FEF3FEF4FE75FE4C701F8
:1008A000B6010E94680A1816B4F46CE271E0CE0139
:1008B000DF91CF911F91FF90EF90DF90CF90BF908D
:1008C000AF909F908F907F906F905F904F903F90F0
:1008D0002F900C94B7032FEF3FEF4FE75FECC7016A
:1008E000B6010E94FF0787FDE0CF20E030E0A901BC
:1008F000C701B6010E94FF07312C212C87FF0DC0D4
:10090000E881F9810190F081E02D6DE2CE01099539
:100910001C01F7FAF094F7F8F09410E060E070E052
:1009200080E09FE3711641F020E030E040E251E4C6
:100930000E94C7091F5FF6CFA70196010E945B09BD
:100940002B013C010E94390A4B015C012AE0BC01E9
:10095000A401CE010E94C6037C01E20CF31C11230A
:10096000E1F1C501B4010E9404089B01AC01C3017F
:10097000B2010E945A094B015C01E881F9810190A2
:10098000F081E02D6EE2CE010995E80EF91E1150BE
:1009900020F120E030E040E251E4C501B4010E94C2
:1009A00065082B013C010E94390A4B01B12CA12C96
:1009B0002AE0B501A401CE010E94C603E80EF91E8B
:1009C000C501B4010E9404089B01AC01C301B2013E
:1009D0000E945A094B015C01DACFC701DF91CF9128
:1009E0001F91FF90EF90DF90CF90BF90AF909F90BE
:1009F0008F907F906F905F904F903F902F900895D1
:100A00000F931F93CF93DF93EC0188819981009717
:100A100059F02A813B812617370730F081E0DF91BA
:100A2000CF911F910F9108958B016F5F7F4F0E94AF
:100A3000BF0B009759F0998388831B830A832C810D
:100A40003D81232B59F7FC011082E8CF80E0E7CFEE
:100A5000EF92FF920F931F93CF93DF93EC017B01F3
:100A6000FB0101900020E9F731978F01061B170B5E
:100A7000B8010E94000528813981811113C0211518
:100A8000310519F0C9010E94360B198218821D82A6
:100A90001C821B821A82DF91CF911F910F91FF90D0
:100AA000EF9008951D830C83B701C901DF91CF91A9
:100AB0001F910F91FF90EF900C94850C1F920F9255
:100AC0000FB60F9211242F933F938F939F93AF9361
:100AD000BF938091A5019091A601A091A701B0912B
:100AE000A8013091A40123E0230F2D3758F501967A
:100AF000A11DB11D2093A4018093A5019093A6018F
:100B0000A093A701B093A8018091A9019091AA0197
:100B1000A091AB01B091AC010196A11DB11D8093D4
:100B2000A9019093AA01A093AB01B093AC01BF912E
:100B3000AF919F918F913F912F910F900FBE0F908A
:100B40001F90189526E8230F0296A11DB11DD2CF44
:100B50001F920F920FB60F9211242F933F934F9332
:100B60005F936F937F938F939F93AF93BF93EF9315
:100B7000FF938DEA91E00E94D901FF91EF91BF911F
:100B8000AF919F918F917F916F915F914F913F9125
:100B90002F910F900FBE0F901F9018951F920F92DC
:100BA0000FB60F9211242F938F939F93EF93FF9380
:100BB000E091BD01F091BE018081E091C301F0910F
:100BC000C40182FD1BC090818091C6018F5F8F732D
:100BD0002091C701821741F0E091C601F0E0E35592
:100BE000FE4F958F8093C601FF91EF919F918F915A
:100BF0002F910F900FBE0F901F9018958081F4CF0A
:100C0000EDEAF1E01382128288EE93E0A0E0B0E01A
:100C100084839583A683B7838AE091E09183808360
:100C200085EC90E09587848784EC90E097878687B1
:100C300080EC90E0918B808B81EC90E0938B828BA9
:100C400082EC90E0958B848B86EC90E0978B868B82
:100C5000118E128E138E148EEAE4F2E01382128249
:100C60008CE191E0918380838CE084838FEF858396
:100C70008BE0868385E0878384E0808783E08187BB
:100C800082E082871386148615861686178681E091
:100C90000C941003CF93DF9300D000D000D0CDB7D9
:100CA000DEB7789484B5826084BD84B5816084BDEC
:100CB00085B5826085BD85B5816085BD80916E00FA
:100CC000816080936E00109281008091810082602B
:100CD0008093810080918100816080938100809168
:100CE00080008160809380008091B1008460809357
:100CF000B1008091B00081608093B00080917A0053
:100D0000846080937A0080917A00826080937A0078
:100D100080917A00816080937A0080917A00806867
:100D200080937A001092C10060E08EE00E94D300B0
:100D3000E091BD01F091BE0182E08083E091B901B4
:100D4000F091BA011082E091BB01F091BC018FECEF
:100D500080831092C501E091C101F091C20186E04B
:100D60008083E091BF01F091C00180818061808328
:100D7000E091BF01F091C001808188608083E091A3
:100D8000BF01F091C001808180688083E091BF0144
:100D9000F091C00180818F7D80830E94080382E0F2
:100DA0000E94100360E371E08AE492E00E94B703BE
:100DB00064EF71E080E090E00E94290180E4B82EA9
:100DC00000E010E0B0927C0080917A008064809313
:100DD0007A0080917A0086FDFCCF60917800709156
:100DE0007900072E000C880B990B0E9406082AE058
:100DF00038E240EA5BE30E94650820E030E048EC1E
:100E000052E40E9465086B017C011A8219821C82DF
:100E10001B821E821D8270E060E0CE0101960E945E
:100E2000000529813A818111E0C02115310519F0B1
:100E3000C9010E94360B1A8219821E821D821C82F1
:100E40001B8220E030E0A901C701B6010E94680AB8
:100E500087FD0DC02AE037ED4FE751E4C701B60129
:100E60000E94FF076DE371E018160CF044C020E00B
:100E700030E040E851E4C701B6010E94680A87FDEE
:100E80000CC025E83BEE4FEB51E4C701B6010E94D0
:100E9000FF076FE471E0181674F520E030E040ECD5
:100EA00051E4C701B6010E94680A87FD0CC023EC1B
:100EB00035EF43E052E4C701B6010E94FF076DE53C
:100EC00071E01816C4F420E030E044E052E4C701B9
:100ED000B6010E94680A87FD0CC023EC35EF4BE495
:100EE00052E4C701B6010E94FF076DE671E01816D3
:100EF00014F46AE771E0CE0101960E9428050E9471
:100F00000803E1E080915D028111E0E0E195F0E00D
:100F1000E65BFD4F848980680E94020360E371E014
:100F20008AE492E00E94B70322E0B701A6018AE4B6
:100F300092E00E94120441E06FED8AE492E00E9488
:100F4000AF026BE871E08AE492E00E94B703E0919F
:100F50005D02E23008F051C0E150F0E0E65BFD4F89
:100F6000848980680E9402034D815E8169817A8153
:100F70008AE492E00E945B016DE871E08DEA91E005
:100F80000E94B70322E0B701A6018DEA91E00E941A
:100F9000120464E971E08DEA91E00E94B7034D818B
:100FA0005E8169817A818DEA91E00E945B0160EA4D
:100FB00071E08DEA91E00E94B70368EE73E080E093
:100FC00090E00E94290189819A81009711F00E9486
:100FD000360B0115110509F4F5CE0E94C5018823D1
:100FE00009F4F0CE0E940000EDCE1E821D8262EA5E
:100FF00071E0C9010E94850C24CFE1E0AECF0E94D0
:10100000410808F481E00895E89409C097FB3EF494
:1010100090958095709561957F4F8F4F9F4F992345
:10102000A9F0F92F96E9BB279395F69587957795C3
:101030006795B795F111F8CFFAF4BB0F11F460FF83
:101040001BC06F5F7F4F8F4F9F4F16C0882311F0DB
:1010500096E911C0772321F09EE8872F762F05C0EF
:10106000662371F096E8862F70E060E02AF09A958A
:10107000660F771F881FDAF7880F9695879597F97F
:101080000895990F0008550FAA0BE0E8FEEF161619
:101090001706E807F907C0F012161306E407F5076C
:1010A00098F0621B730B840B950B39F40A2661F0E0
:1010B000232B242B252B21F408950A2609F4A14083
:1010C000A6958FEF811D811D08950E9478080C94CC
:1010D000E9080E94DB0838F00E94E20820F095231E
:1010E00011F00C94D2080C94D80811240C941D090A
:1010F0000E94FA0870F3959FC1F3950F50E0551FB9
:10110000629FF001729FBB27F00DB11D639FAA275C
:10111000F00DB11DAA1F649F6627B00DA11D661FAB
:10112000829F2227B00DA11D621F739FB00DA11DCC
:10113000621F839FA00D611D221F749F3327A00D86
:10114000611D231F849F600D211D822F762F6A2F22
:1011500011249F5750409AF0F1F088234AF0EE0F87
:10116000FF1FBB1F661F771F881F91505040A9F7B4
:101170009E3F510580F00C94D2080C941D095F3FEE
:10118000E4F3983ED4F3869577956795B795F795F0
:10119000E7959F5FC1F7FE2B880F911D9695879568
:1011A00097F9089597F99F6780E870E060E00895E7
:1011B0009FEF80EC089500240A941616170618066F
:1011C0000906089500240A9412161306140605064B
:1011D0000895092E0394000C11F4882352F0BB0FDC
:1011E00040F4BF2B11F460FF04C06F5F7F4F8F4F3F
:1011F0009F4F089557FD9058440F551F59F05F3F7A
:1012000071F04795880F97FB991F61F09F3F79F028
:1012100087950895121613061406551FF2CF4695AA
:10122000F1DF08C0161617061806991FF1CF86952C
:101230007105610508940895E894BB276627772710
:10124000CB0197F908952F923F924F925F926F9240
:101250007F928F929F92AF92BF92CF92DF92EF9246
:10126000FF920F931F93CF93DF93CDB7DEB7CA1BC7
:10127000DB0B0FB6F894DEBF0FBECDBF09942A88F2
:10128000398848885F846E847D848C849B84AA849A
:10129000B984C884DF80EE80FD800C811B81AA8127
:1012A000B981CE0FD11D0FB6F894DEBF0FBECDBFF2
:1012B000ED0108955058BB27AA270E9472090C948B
:1012C000E9080E94DB0838F00E94E20820F039F4B7
:1012D0009F3F19F426F40C94D8080EF4E095E7FB30
:1012E0000C94D208E92F0E94FA0858F3BA17620743
:1012F00073078407950720F079F4A6F50C941C0970
:101300000EF4E0950B2EBA2FA02D0B01B901900120
:101310000C01CA01A0011124FF27591B99F0593F64
:1013200050F4503E68F11A16F040A22F232F342FAC
:101330004427585FF3CF469537952795A795F040FA
:101340005395C9F77EF41F16BA0B620B730B840B0F
:10135000BAF09150A1F0FF0FBB1F661F771F881FC7
:10136000C2F70EC0BA0F621F731F841F48F487951F
:1013700077956795B795F7959E3F08F0B0CF939511
:10138000880F08F09927EE0F9795879508950E948A
:10139000DB090C94E9080E94E20858F00E94DB087F
:1013A00040F029F45F3F29F00C94D20851110C94BD
:1013B0001D090C94D8080E94FA0868F39923B1F328
:1013C000552391F3951B550BBB27AA27621773076B
:1013D000840738F09F5F5F4F220F331F441FAA1FFF
:1013E000A9F335D00E2E3AF0E0E832D091505040BB
:1013F000E695001CCAF72BD0FE2F29D0660F771F69
:10140000881FBB1F261737074807AB07B0E809F04E
:10141000BB0B802DBF01FF2793585F4F3AF09E3FD3
:10142000510578F00C94D2080C941D095F3FE4F349
:10143000983ED4F3869577956795B795F7959F5F16
:10144000C9F7880F911D9695879597F90895E1E062
:10145000660F771F881FBB1F621773078407BA07C1
:1014600020F0621B730B840BBA0BEE1F88F7E0951C
:1014700008950E94020988F09F5798F0B92F992784
:10148000B751B0F0E1F0660F771F881F991F1AF06F
:10149000BA95C9F714C0B13091F00E941C09B1E0AF
:1014A00008950C941C09672F782F8827B85F39F0AE
:1014B000B93FCCF3869577956795B395D9F73EF408
:1014C00090958095709561957F4F8F4F9F4F0895B0
:1014D0000E94410808F48FEF08950E944108880B8C
:1014E000990B0895A1E21A2EAA1BBB1BFD010DC08A
:1014F000AA1FBB1FEE1FFF1FA217B307E407F507C4
:1015000020F0A21BB30BE40BF50B661F771F881F9F
:10151000991F1A9469F760957095809590959B0135
:10152000AC01BD01CF010895EE0FFF1F0590F491AE
:10153000E02D09940F931F93CF93DF938230910591
:1015400010F482E090E0E0916402F091650230E0F6
:1015500020E0B0E0A0E0309799F42115310509F4BE
:101560004AC0281B390B24303105D8F58A819B816C
:101570006115710589F1FB0193838283FE0111C01E
:10158000408151810281138148175907E0F04817C3
:10159000590799F4109761F012960C9312971396CD
:1015A0001C933296CF01DF91CF911F910F91089537
:1015B0000093640210936502F4CF2115310551F0B8
:1015C0004217530738F0A901DB019A01BD01DF0181
:1015D000F801C1CFEF01F9CF9093650280936402C7
:1015E000CDCFFE01E20FF31F819391932250310979
:1015F00039832883D7CF2091620230916302232B55
:1016000041F4209102013091030130936302209351
:10161000620220910001309101012115310541F450
:101620002DB73EB74091040150910501241B350BA5
:10163000E0916202F0916302E217F307A0F42E1B1F
:101640003F0B2817390778F0AC014E5F5F4F241726
:10165000350748F04E0F5F1F5093630240936202BC
:10166000819391939FCFF0E0E0E09CCFCF93DF9305
:101670000097E9F0FC01329713821282A091640274
:10168000B0916502ED0130E020E01097A1F42081D7
:101690003181820F931F20916202309163022817DB
:1016A000390709F061C0F0936302E0936202DF91B1
:1016B000CF910895EA01CE17DF07E8F54A815B81F3
:1016C0009E0141155105B1F7E901FB83EA83499178
:1016D0005991C40FD51FEC17FD0761F480819181EA
:1016E0000296840F951FE9019983888382819381F3
:1016F0009B838A83F0E0E0E012968D919C91139792
:101700000097B9F52D913C911197CD010296820F6A
:10171000931F20916202309163022817390739F62E
:10172000309751F51092650210926402B0936302F3
:10173000A0936202BCCFD383C28340815181840FC6
:10174000951FC817D90761F44E5F5F4F8881998153
:10175000480F591F518340838A819B8193838283E1
:101760002115310509F0B0CFF0936502E0936402D2
:101770009ECFFD01DC01C0CF13821282D7CFB0E033
:10178000A0E0E5ECFBE00C9425098C01009751F4F6
:10179000CB010E949A0A8C01C801CDB7DEB7E0E107
:1017A0000C944109FC01E60FF71F9C0122503109FE
:1017B000E217F30708F49DC0D901CD91DC91119790
:1017C000C617D70798F0C530D10530F3CE0104977E
:1017D0008617970708F3C61BD70B2297C193D1939F
:1017E0006D937C93CF010E94360BD6CF5B01AC1A70
:1017F000BD0A4C018C0E9D1EA0916402B091650241
:10180000512C412CF12CE12C109731F58091620282
:10181000909163028815990509F05CC04616570639
:1018200008F058C08091000190910101009741F4A7
:101830008DB79EB74091040150910501841B950B13
:10184000E817F90708F055C0F0936302E0936202CD
:10185000F90171836083A0CF8D919C9111971296AD
:101860006C90129713967C901397A815B90559F5AB
:101870006C0142E0C40ED11CCA14DB0420F1AC019F
:101880004A195B09DA011296159780F06282738219
:1018900051834083D9016D937C93E114F10471F07D
:1018A000D7011396FC93EE93129776CF22968C0F66
:1018B0009D1FF90191838083F301EFCFF0936502BF
:1018C000E093640269CF4816590608F42C017D01A3
:1018D000D3019ACFCB010E949A0A7C01009749F06C
:1018E000AE01B8010E947C0CC8010E94360B870132
:1018F00053CF10E000E050CFFB01DC0102C00190AB
:101900000D9241505040D8F70895FB01DC01019041
:0C1910000D920020E1F70895F894FFCF3D
:10191C0000006602800000000000FB015B018801F2
:10192C004802B9019701AB0100000000B1035B0153
:10193C00690268026E616E00696E66006F76660001
:10194C0054656D70657261747572653A005374619B
:10195C00747573203A20546F6F20436F6C6400537E
:10196C007461747573203A20436F6F6C005374610B
:10197C00747573203A204E6F726D616C00537461F4
:10198C00747573203A20486F7400537461747573C6
:10199C00203A20546F6F20486F7400430054656DDB
:1019AC00703A200020432C5374617475733A2000F4
:0419BC000D0A000010
:00000001FF
